{
  "contractName": "CoinToFlip",
  "abi": [
    {
      "constant": true,
      "inputs": [],
      "name": "owner",
      "outputs": [
        {
          "name": "",
          "type": "address"
        }
      ],
      "payable": false,
      "stateMutability": "view",
      "type": "function"
    },
    {
      "constant": true,
      "inputs": [],
      "name": "lockedInBets",
      "outputs": [
        {
          "name": "",
          "type": "uint256"
        }
      ],
      "payable": false,
      "stateMutability": "view",
      "type": "function"
    },
    {
      "inputs": [],
      "payable": false,
      "stateMutability": "nonpayable",
      "type": "constructor"
    },
    {
      "payable": true,
      "stateMutability": "payable",
      "type": "fallback"
    },
    {
      "anonymous": false,
      "inputs": [
        {
          "indexed": false,
          "name": "reveal",
          "type": "uint256"
        }
      ],
      "name": "Reveal",
      "type": "event"
    },
    {
      "anonymous": false,
      "inputs": [
        {
          "indexed": true,
          "name": "beneficiary",
          "type": "address"
        },
        {
          "indexed": false,
          "name": "amount",
          "type": "uint256"
        }
      ],
      "name": "Payment",
      "type": "event"
    },
    {
      "anonymous": false,
      "inputs": [
        {
          "indexed": true,
          "name": "beneficiary",
          "type": "address"
        },
        {
          "indexed": false,
          "name": "amount",
          "type": "uint256"
        }
      ],
      "name": "FailedPayment",
      "type": "event"
    },
    {
      "constant": false,
      "inputs": [
        {
          "name": "beneficiary",
          "type": "address"
        },
        {
          "name": "withdrawAmount",
          "type": "uint256"
        }
      ],
      "name": "withdrawFunds",
      "outputs": [],
      "payable": false,
      "stateMutability": "nonpayable",
      "type": "function"
    },
    {
      "constant": false,
      "inputs": [],
      "name": "kill",
      "outputs": [],
      "payable": false,
      "stateMutability": "nonpayable",
      "type": "function"
    },
    {
      "constant": false,
      "inputs": [
        {
          "name": "betMask",
          "type": "uint8"
        }
      ],
      "name": "placeBet",
      "outputs": [],
      "payable": true,
      "stateMutability": "payable",
      "type": "function"
    },
    {
      "constant": false,
      "inputs": [
        {
          "name": "seed",
          "type": "uint8"
        }
      ],
      "name": "revealResult",
      "outputs": [],
      "payable": false,
      "stateMutability": "nonpayable",
      "type": "function"
    },
    {
      "constant": false,
      "inputs": [],
      "name": "refundBet",
      "outputs": [],
      "payable": false,
      "stateMutability": "nonpayable",
      "type": "function"
    },
    {
      "constant": true,
      "inputs": [],
      "name": "checkHouseFund",
      "outputs": [
        {
          "name": "",
          "type": "uint256"
        }
      ],
      "payable": false,
      "stateMutability": "view",
      "type": "function"
    }
  ],
  "bytecode": "0x608060405234801561001057600080fd5b50336000806101000a81548173ffffffffffffffffffffffffffffffffffffffff021916908373ffffffffffffffffffffffffffffffffffffffff160217905550611238806100606000396000f30060806040526004361061008e576000357c0100000000000000000000000000000000000000000000000000000000900463ffffffff16806311ea8acb14610090578063172f8276146100a75780631e1871e9146100d257806341c0e1b51461010257806343046844146101195780638da5cb5b1461013c578063c107532914610193578063df88126f146101e0575b005b34801561009c57600080fd5b506100a561020b565b005b3480156100b357600080fd5b506100bc610405565b6040518082815260200191505060405180910390f35b3480156100de57600080fd5b50610100600480360381019080803560ff16906020019092919050505061050e565b005b34801561010e57600080fd5b50610117610845565b005b61013a600480360381019080803560ff169060200190929190505050610a09565b005b34801561014857600080fd5b50610151610d86565b604051808273ffffffffffffffffffffffffffffffffffffffff1673ffffffffffffffffffffffffffffffffffffffff16815260200191505060405180910390f35b34801561019f57600080fd5b506101de600480360381019080803573ffffffffffffffffffffffffffffffffffffffff16906020019092919080359060200190929190505050610dab565b005b3480156101ec57600080fd5b506101f5610f36565b6040518082815260200191505060405180910390f35b6000806000808360020154431115156102b2576040517f08c379a00000000000000000000000000000000000000000000000000000000081526004018080602001828103825260338152602001807f726566756e6442657420696e207468652073616d6520626c6f636b206173207081526020017f6c6163654265742c206f72206265666f72652e0000000000000000000000000081525060400191505060405180910390fd5b600260003373ffffffffffffffffffffffffffffffffffffffff1673ffffffffffffffffffffffffffffffffffffffff168152602001908152602001600020935083600001549250600083111515610398576040517f08c379a00000000000000000000000000000000000000000000000000000000081526004018080602001828103825260228152602001807f4265742073686f756c6420626520696e20616e2027616374697665272073746181526020017f746500000000000000000000000000000000000000000000000000000000000081525060400191505060405180910390fd5b8360010160009054906101000a900460ff1691506103da8460030160019054906101000a900473ffffffffffffffffffffffffffffffffffffffff1684610f3c565b6103e4838361101c565b9050806001600082825403925050819055506103ff336110fd565b50505050565b60008060009054906101000a900473ffffffffffffffffffffffffffffffffffffffff1673ffffffffffffffffffffffffffffffffffffffff163373ffffffffffffffffffffffffffffffffffffffff161415156104f1576040517f08c379a00000000000000000000000000000000000000000000000000000000081526004018080602001828103825260228152602001807f4f6e6c79206f776e65722063616e2063616c6c20746869732066756e6374696f81526020017f6e2e00000000000000000000000000000000000000000000000000000000000081525060400191505060405180910390fd5b3073ffffffffffffffffffffffffffffffffffffffff1631905090565b6000806000806000806000806000600260003373ffffffffffffffffffffffffffffffffffffffff1673ffffffffffffffffffffffffffffffffffffffff1681526020019081526020016000209850886000015497508860010160009054906101000a900460ff169650886002015495508860030160019054906101000a900473ffffffffffffffffffffffffffffffffffffffff169450600088111515610644576040517f08c379a00000000000000000000000000000000000000000000000000000000081526004018080602001828103825260228152602001807f4265742073686f756c6420626520696e20616e2027616374697665272073746181526020017f746500000000000000000000000000000000000000000000000000000000000081525060400191505060405180910390fd5b85431115156106e1576040517f08c379a00000000000000000000000000000000000000000000000000000000081526004018080602001828103825260368152602001807f72657665616c526573756c7420696e207468652073616d6520626c6f636b206181526020017f7320706c6163654265742c206f72206265666f72652e0000000000000000000081525060400191505060405180910390fd5b8960ff1643034086406040516020018083600019166000191681526020018260001916600019168152602001925050506040516020818303038152906040526040518082805190602001908083835b6020831015156107555780518252602082019150602081019050602083039250610730565b6001836020036101000a038019825116818451168082178552505050505050905001915050604051809103902093506002846001900481151561079457fe5b06925060009150600090506107a9888861101c565b905060008960030160009054906101000a900460ff1660ff168460020a161415156107d2578091505b7f1747b48b6ade85d7dc97c0f523e0e780795930a468c01b18a51546791fdd3ac08360020a6040518082815260200191505060405180910390a160008211156108205761081f8583610f3c565b5b80600160008282540392505081905550610839336110fd565b50505050505050505050565b6000809054906101000a900473ffffffffffffffffffffffffffffffffffffffff1673ffffffffffffffffffffffffffffffffffffffff163373ffffffffffffffffffffffffffffffffffffffff1614151561092f576040517f08c379a00000000000000000000000000000000000000000000000000000000081526004018080602001828103825260228152602001807f4f6e6c79206f776e65722063616e2063616c6c20746869732066756e6374696f81526020017f6e2e00000000000000000000000000000000000000000000000000000000000081525060400191505060405180910390fd5b60006001541415156109cf576040517f08c379a00000000000000000000000000000000000000000000000000000000081526004018080602001828103825260328152602001807f416c6c20626574732073686f756c642062652070726f6365737365642062656681526020017f6f72652073656c662d64657374727563742e000000000000000000000000000081525060400191505060405180910390fd5b6000809054906101000a900473ffffffffffffffffffffffffffffffffffffffff1673ffffffffffffffffffffffffffffffffffffffff16ff5b600080600080349350662386f26fc100008410158015610a315750678ac7230489e800008411155b1515610aa5576040517f08c379a00000000000000000000000000000000000000000000000000000000081526004018080602001828103825260178152602001807f416d6f756e74206973206f7574206f662072616e67652e00000000000000000081525060200191505060405180910390fd5b60008560ff16118015610abc57506101008560ff16105b1515610b30576040517f08c379a00000000000000000000000000000000000000000000000000000000081526004018080602001828103825260148152602001807f4d61736b2073686f756c6420626520382062697400000000000000000000000081525060200191505060405180910390fd5b600260003373ffffffffffffffffffffffffffffffffffffffff1673ffffffffffffffffffffffffffffffffffffffff1681526020019081526020016000209250600073ffffffffffffffffffffffffffffffffffffffff168360030160019054906101000a900473ffffffffffffffffffffffffffffffffffffffff1673ffffffffffffffffffffffffffffffffffffffff16141515610c39576040517f08c379a000000000000000000000000000000000000000000000000000000000815260040180806020018281038252601a8152602001807f4265742073686f756c6420626520656d7074792073746174652e00000000000081525060200191505060405180910390fd5b610c42856111d8565b9150838360000181905550818360010160006101000a81548160ff021916908360ff160217905550438360020181905550848360030160006101000a81548160ff021916908360ff160217905550338360030160016101000a81548173ffffffffffffffffffffffffffffffffffffffff021916908373ffffffffffffffffffffffffffffffffffffffff160217905550610cdd848361101c565b9050806001600082825401925050819055503073ffffffffffffffffffffffffffffffffffffffff1631600154101515610d7f576040517f08c379a000000000000000000000000000000000000000000000000000000000815260040180806020018281038252601d8152602001807f43616e6e6f74206166666f726420746f2070617920746865206265742e00000081525060200191505060405180910390fd5b5050505050565b6000809054906101000a900473ffffffffffffffffffffffffffffffffffffffff1681565b6000809054906101000a900473ffffffffffffffffffffffffffffffffffffffff1673ffffffffffffffffffffffffffffffffffffffff163373ffffffffffffffffffffffffffffffffffffffff16141515610e95576040517f08c379a00000000000000000000000000000000000000000000000000000000081526004018080602001828103825260228152602001807f4f6e6c79206f776e65722063616e2063616c6c20746869732066756e6374696f81526020017f6e2e00000000000000000000000000000000000000000000000000000000000081525060400191505060405180910390fd5b3073ffffffffffffffffffffffffffffffffffffffff1631600154820111151515610f28576040517f08c379a00000000000000000000000000000000000000000000000000000000081526004018080602001828103825260148152602001807f6c6172676572207468616e2062616c616e63652e00000000000000000000000081525060200191505060405180910390fd5b610f328282610f3c565b5050565b60015481565b8173ffffffffffffffffffffffffffffffffffffffff166108fc829081150290604051600060405180830381858888f1935050505015610fc9578173ffffffffffffffffffffffffffffffffffffffff167fd4f43975feb89f48dd30cabbb32011045be187d1e11c8ea9faa43efc35282519826040518082815260200191505060405180910390a2611018565b8173ffffffffffffffffffffffffffffffffffffffff167fac464fe4d3a86b9121261ac0a01dd981bfe0777c7c9d9c8f4473d31a9c0f9d2d826040518082815260200191505060405180910390a25b5050565b60008060008360ff166000108015611037575060028460ff16105b15156110ab576040517f08c379a000000000000000000000000000000000000000000000000000000000815260040180806020018281038252601b8152602001807f50726f626162696c697479206973206f7574206f662072616e6765000000000081525060200191505060405180910390fd5b6064600586028115156110ba57fe5b0491506611c37937e080008210156110d7576611c37937e0800091505b6001840360ff16600201858115156110eb57fe5b04905080828603019250505092915050565b6000600260008373ffffffffffffffffffffffffffffffffffffffff1673ffffffffffffffffffffffffffffffffffffffff16815260200190815260200160002090506000816000018190555060008160010160006101000a81548160ff021916908360ff1602179055506000816002018190555060008160030160006101000a81548160ff021916908360ff16021790555060008160030160016101000a81548173ffffffffffffffffffffffffffffffffffffffff021916908373ffffffffffffffffffffffffffffffffffffffff1602179055505050565b6000805b60008360ff16111561120357600183168101905060018360ff169060020a900492506111dc565b809150509190505600a165627a7a723058200d62f844b717c1fd222f8554b966fbacccef17ca124c8876e0fe281685f8301c0029",
  "source": "pragma solidity ^0.4.24;\r\n\r\n// ----------------------------------------------------------------------------\r\n// CoinToFlip.sol\r\n// Simple Coin flip game\r\n//\r\n// Educational purpose only.\r\n// ----------------------------------------------------------------------------\r\ncontract CoinToFlip {\r\n\r\n    uint constant MAX_CASE = 2; // for coin\r\n    uint constant MIN_BET = 0.01 ether;\r\n    uint constant MAX_BET = 10 ether;\r\n    uint constant HOUSE_FEE_PERCENT = 5;\r\n    uint constant HOUSE_MIN_FEE = 0.005 ether;\r\n\r\n    address public owner;   //계정 타입 -계정 주소만들때\r\n    uint public lockedInBets;\r\n\r\n    struct Bet {    //베팅정보-구조체\r\n        uint amount;\r\n        uint8 numOfBetBit;// 중복 베팅금지\r\n        uint placeBlockNumber; // Block number of Bet tx.\r\n        // Bit mask representing winning bet outcomes\r\n        // 0000 0010 for front side of coin, 50% chance\r\n        // 0000 0001 for back side of coin, 50% chance\r\n        // 0000 0011 for both sides,  100% chance - no reward!\r\n        uint8 mask;//경우의수 2개 앞뒤\r\n        address gambler; // Address of a gambler, used to pay out winning bets.\r\n    }\r\n\r\n    mapping (address => Bet) bets; //Bet book  데이터 타입\r\n    //플레이어 베팅 정보 장부에 기록\r\n\r\n    event Reveal(uint reveal);//1앞 or 2뒤          이벤트가 있어야 화면으로 전달 ->emit\r\n    event Payment(address indexed beneficiary, uint amount);\r\n    event FailedPayment(address indexed beneficiary, uint amount);\r\n\r\n\r\n    constructor () public {\r\n        owner = msg.sender;// 배포계정\r\n    }\r\n\r\n    // Standard modifier on methods invokable only by contract owner.\r\n    modifier onlyOwner {\r\n        require (msg.sender == owner, \"Only owner can call this function.\");\r\n        _;\r\n    }//modifier-> 배포자만 실행할수 있는 함수 검사\r\n\r\n\r\n    // Funds withdrawal to maintain the house\r\n    function withdrawFunds(address beneficiary, uint withdrawAmount) external onlyOwner {\r\n        require (withdrawAmount + lockedInBets <= address(this).balance, \"larger than balance.\");\r\n        sendFunds(beneficiary, withdrawAmount);\r\n    }//이더인출\r\n\r\n    function sendFunds(address beneficiary, uint amount) private {\r\n        if (beneficiary.send(amount)) {\r\n            emit Payment(beneficiary, amount);\r\n        } else {\r\n            emit FailedPayment(beneficiary, amount);\r\n        }\r\n    }//상금제공\r\n\r\n\r\n    function kill() external onlyOwner {\r\n        require (lockedInBets == 0, \"All bets should be processed before self-destruct.\");\r\n        selfdestruct(owner);\r\n    }//컨트렉트 비활성화  -> 관리자만 가능하게\r\n\r\n\r\n    function () public payable {}// 폴백->하우스 초기 자금\r\n\r\n\r\n    //Bet by player  뭐 베팅했는지만 \r\n    function placeBet(uint8 betMask) external payable {\r\n\r\n        uint amount = msg.value;\r\n\r\n        require (amount >= MIN_BET && amount <= MAX_BET, \"Amount is out of range.\");\r\n        require (betMask > 0 && betMask < 256, \"Mask should be 8 bit\");\r\n\r\n        Bet storage bet = bets[msg.sender]; //mapping bets(address => Bet) 플레이어 장부에서 찾기 없으면 만들기\r\n        //Bet bet = bets[msg.sender];\r\n\r\n        require (bet.gambler == address(0), \"Bet should be empty state.\"); //can place a bet\r\n        //if (bet.gambler == null) X \r\n\r\n        //count bet bit in the betMask\r\n        //0000 0011  number of bits = 2\r\n        //0000 0001  number of bits = 1\r\n        uint8 numOfBetBit = countBits(betMask);\r\n\r\n        bet.amount = amount;\r\n        bet.numOfBetBit = numOfBetBit;\r\n        bet.placeBlockNumber = block.number;\r\n        bet.mask = betMask;\r\n        bet.gambler = msg.sender;\r\n\r\n        // need to lock possible winning amount to pay\r\n        uint possibleWinningAmount = getWinningAmount(amount, numOfBetBit);\r\n        lockedInBets += possibleWinningAmount;\r\n\r\n        // Check whether house has enough ETH to pay the bet.\r\n        require(lockedInBets < address(this).balance, \"Cannot afford to pay the bet.\");//내돈보다 플레이어 돈많으면 베팅안되게\r\n    }\r\n\r\n    function getWinningAmount(uint amount, uint8 numOfBetBit) private pure returns (uint winningAmount) {\r\n\r\n        require (0 < numOfBetBit && numOfBetBit < MAX_CASE, \"Probability is out of range\"); // 1\r\n\r\n        uint houseFee = amount * HOUSE_FEE_PERCENT / 100;\r\n\r\n        if (houseFee < HOUSE_MIN_FEE) {\r\n            houseFee = HOUSE_MIN_FEE;\r\n        }//보상\r\n\r\n        //reward calculation is depends on your own idea\r\n        uint reward = amount / (MAX_CASE + (numOfBetBit-1));\r\n\r\n        winningAmount = (amount - houseFee) + reward;\r\n    }\r\n\r\n    //\r\n    //\r\n    //\r\n    //Reveal the coin by player  결과\r\n    function revealResult(uint8 seed) external {\r\n\r\n        Bet storage bet = bets[msg.sender];\r\n        uint amount = bet.amount;\r\n        uint8 numOfBetBit = bet.numOfBetBit;\r\n        uint placeBlockNumber = bet.placeBlockNumber;\r\n        address gambler = bet.gambler;\r\n\r\n        require (amount > 0, \"Bet should be in an 'active' state\");\r\n\r\n        // should be called after placeBet\r\n        require(block.number > placeBlockNumber, \"revealResult in the same block as placeBet, or before.\");\r\n        //베팅을 결과보다 먼저 블록에 저장\r\n        //RNG(Random Number Generator)난수생성 블록해시(블록체인 식별번호 이용해 난수생성)\r\n        bytes32 random = keccak256(abi.encodePacked(blockhash(block.number-seed), blockhash(placeBlockNumber)));\r\n\r\n        uint reveal = uint(random) % MAX_CASE; // 0 or 1\r\n\r\n        uint winningAmount = 0;\r\n        uint possibleWinningAmount = 0;\r\n        possibleWinningAmount = getWinningAmount(amount, numOfBetBit);\r\n\r\n        if ((2 ** reveal) & bet.mask != 0) {\r\n            winningAmount = possibleWinningAmount;\r\n        }\r\n\r\n        emit Reveal(2 ** reveal);\r\n\r\n        if (winningAmount > 0) {\r\n            sendFunds(gambler, winningAmount);//상금전송\r\n        }\r\n\r\n        lockedInBets -= possibleWinningAmount;\r\n        clearBet(msg.sender);\r\n    }\r\n\r\n    //베팅정보 초기화\r\n    function clearBet(address player) private {\r\n        Bet storage bet = bets[player];\r\n\r\n        bet.amount = 0;\r\n        bet.numOfBetBit = 0;\r\n        bet.placeBlockNumber = 0;\r\n        bet.mask = 0;\r\n        bet.gambler = address(0); // NULL\r\n    }\r\n\r\n\r\n\r\n    //can refund before reveal\r\n    function refundBet() external {//만약 베팅후 취소하는것-> 수수료는 가져온다\r\n\r\n        // Check that bet has been already mined.\r\n        require(block.number > bet.placeBlockNumber, \"refundBet in the same block as placeBet, or before.\");\r\n\r\n        Bet storage bet = bets[msg.sender];\r\n        uint amount = bet.amount;\r\n\r\n        require (amount > 0, \"Bet should be in an 'active' state\");\r\n\r\n        uint8 numOfBetBit = bet.numOfBetBit;\r\n\r\n        // Send the refund.\r\n        sendFunds(bet.gambler, amount);\r\n\r\n        uint possibleWinningAmount;\r\n        possibleWinningAmount = getWinningAmount(amount, numOfBetBit);\r\n\r\n        lockedInBets -= possibleWinningAmount;\r\n        clearBet(msg.sender);\r\n    }\r\n\r\n\r\n    function checkHouseFund() public view onlyOwner returns(uint) {\r\n        return address(this).balance;\r\n    }//잔액확인\r\n\r\n\r\n    function countBits(uint8 _num) internal pure returns (uint8){\r\n        uint8 count; \r\n        while (_num > 0){\r\n            count += _num & 1;\r\n            _num >>= 1;\r\n        }\r\n        return count;\r\n    }\r\n\r\n\r\n}",
  "sourcePath": "D:\\dori\\contracts\\CoinToFlip.sol",
  "compiler": {
    "name": "solc",
    "version": "0.4.24+commit.e67f0147.Emscripten.clang"
  },
  "schemaVersion": "2.0.1",
  "updatedAt": "2018-12-09T06:01:36.521Z"
}